:020000040800F2
:10000000F02F0020A9300008490200084B02000828
:100010004D0200084F0200085102000800000000D5
:10002000000000000000000000000000A101000826
:100030005302000800000000E5010008DF56000838
:10004000C3300008C3300008C3300008C3300008C4
:10005000C3300008C3300008C3300008C3300008B4
:100060002704000873040008C330000805030008D3
:10007000C702000851030008C330000879020008D5
:10008000C330000881020008C3300008C3300008F4
:10009000C3300008C3300008C3300008C330000874
:1000A000C330000881030008A1030008C330000822
:1000B000A3030008C3030008E3030008C3300008DB
:1000C000C3300008C3300008C33000082304000810
:1000D000C330000859020008C3300008C3300008CC
:1000E000C3300008C3300008C3300008C330000824
:1000F000C3300008C3300008C330000827030008DD
:10010000C3300008C33000080304000825040008B9
:10011000C3300008C3300008670300086F030008FD
:10012000C3300008C3300008A3020008C330000831
:10013000C3300008C3300008C3300008C3300008D3
:10014000C3300008C3300008C3300008C3300008C3
:10015000BD020008C3300008C3300008C3300008E7
:10016000C3300008C3300008C3300008C3300008A3
:10017000C3300008C3300008C3300008C330000893
:10018000C3300008C3300008DFF810D006F032FB9F
:1001900000480047A92E0008AFF30080F02F002090
:1001A000234B19680868B0E8F04F80F309884FF0D6
:1001B000000080F3118870470000000003480068C9
:1001C000006880F3088862B600DF00BF08ED00E039
:1001D000DFF80C00016841F470010160704700BF56
:1001E00088ED00E0EFF30980114B1A681EF0100F44
:1001F00008BF20ED108A20E9F04F106008B54FF0DD
:10020000140080F3118805F040FD4FF0000080F3EA
:100210001188BDE8084019680868B0E8F04F1EF082
:10022000100F08BFB0EC108A80F30988704700BF38
:1002300060010020EFF311804FF0140181F3118869
:10024000704780F3118870477047FEE7FEE7FEE7CE
:10025000FEE770477047704710B5864C40F2255155
:10026000204604F086FC002805D02046BDE810405A
:10027000202104F07BBC10BD7F49804803F08BBD7A
:1002800070B57E4D7E4C30352146284603F060FD2A
:10029000002805D021462846BDE8704003F07BBD0C
:1002A00070BD10B57749784803F075FD77484178FF
:1002B000007841EA00207649088010BD72487549EF
:1002C000483003F068BD70B56C4D734C483D214615
:1002D000284603F03DFD002813D02146284603F0B0
:1002E0005AFD6E4802F077F800280AD16C4C0021C4
:1002F000204604F07DFB2046BDE87040012104F05B
:1003000077BB70BD70B55D4D664C603D214628469B
:1003100003F01EFD002805D021462846BDE87040A8
:1003200003F039BD70BD70B5544C5F4D483429465B
:10033000204603F00DFD002809D00021204603F0DF
:100340007CFC29462046BDE8704003F024BD70BD0A
:100350004A4810B54849303803F01DFD534800782D
:100360005349087010BD0121524804F0E0B910B59E
:100370000121514804F0DBF93E497A20888010BD04
:1003800010B54E4C0121204604F0D1F92088C10659
:100390004B48016801D5491E00E0491C016010BDB1
:1003A000704710B501218C07204604F0C0F9208861
:1003B000C1064448016801D5491E00E0491C01609E
:1003C00010BD10B5404C0121204604F0B0F9208842
:1003D000C1063E48016801D5491E00E0491C016084
:1003E00010BD10B53A4C0121204604F0A0F9208838
:1003F000C1063848016801D5491E00E0491C01606A
:1004000010BD10B5344C0121204604F090F920882D
:10041000C1063248016801D5491E00E0491C01604F
:1004200010BD7047704770B5042003F033FD0028FD
:100430001ED020212A4802F086FF2A4D042128469A
:1004400002F062FF1C4C012805D00421284602F06E
:100450005BFF28B109E00021204603F001FE04E023
:10046000204603F001FE204908602049042008606E
:1004700070BD704700100140208000207060024075
:100480000080202000802010406402406402002090
:100490000A00002000880020008800108C02002044
:1004A00000480040208000100080002873020020D7
:1004B0000000002000100040001400400000014037
:1004C0000C00002010000020000400401400002058
:1004D00000080040B0000020000C0040080100208F
:1004E00000000240000C02400C010020143C0140BE
:1004F00070B50546002405F0E3FEFE4902E02A5DE2
:100500000A55641C8442FADBBDE870400121FA48B8
:1005100003F093BB70B5F94D06460024315D002908
:100520000BD0284604F08AFA8021284604F017FBF5
:100530000028F9D0641CE4B2F0E770BD70B5EF4E4E
:1005400005460024002D0DD02946304604F076FAE9
:100550008021304604F003FB0028F9D0641CE4B28B
:10056000032CEFD370BD73B50C460020FFF7E6FFF8
:10057000E3A0FFF7CFFFDF482246E2A1823806F072
:1005800087F9DC488238FFF7C5FFDFA0FFF7C2FF1D
:10059000DFA0FFF7BFFFD748DAA18238009A06F044
:1005A00077F9D44E0024D54D823E2846315D04F0C3
:1005B00045FA4021284604F0D2FA0028F9D0641CFC
:1005C000142CF2DBD2A0FFF7A5FFFF20FFF7B6FF48
:1005D000FF20FFF7B3FFBDE87C40FF20AEE770B51A
:1005E00005460C46C6A0FFF795FFC2482246C5A1A6
:1005F000823806F04DF9BF488238FFF78BFFC5A05F
:10060000FFF788FF2846FFF785FFC1A0FFF782FFAD
:10061000BDE87040FF2091E777B5BEA185B00646E2
:10062000D1E90001CDE90001B9A0002200680390E2
:10063000B3A0B04D0068283DA5F128030290AD4C51
:100640001146A3F13200A95499548154A154521C6B
:10065000D2B21E2AF7D30A210170FF24447084709D
:10066000C470A448A7A15038079A06F011F9A1490F
:1006700002A8503905F00CFE9E4802A9823805F008
:1006800007FE9C486946823805F002FE99483146CB
:10069000823805F0FDFD97489AA15038069A06F079
:1006A000F7F894495039A1F1320005F0F1FD914875
:1006B00003A9823805F0ECFD8E492C706C70283946
:1006C000AC70A1F15A0005F0E3FD8A488238FFF7CB
:1006D0000FFF08B070BD2DE9F74188468DA185B0A8
:1006E0000646D1E90001CDE9000189A00022006899
:1006F000039083A07F4D0068283DA5F1280102905A
:100700001446A1F13200AC548C548454521CD2B221
:100710000A2AF8D30A210170FF2747708770C77033
:10072000744878A15038079A06F0B2F8714902A8C7
:10073000503905F0ADFD6F4802A9823805F0A8FDDB
:100740006C486946823805F0A3FD6A483146823814
:1007500005F09EFD67484146823805F099FD6548E1
:1007600003A9823805F094FD2F706F706149AF7056
:10077000EC7028392C71A1F15A0005F089FD5D4813
:100780008238FFF7B5FE08B0BDE8F08170B50020F3
:10079000FFF7D4FE5AA0FFF7BDFE56480D2259A11F
:1007A000823806F075F853488238FFF7B3FE59A037
:1007B000FFF7B0FE594C2021204602F0A5FD02466D
:1007C0004C4850A1823806F063F84A488238FFF757
:1007D000A1FE1021204602F097FD0246454849A19E
:1007E000823806F055F843488238FFF793FE4C4DA7
:1007F0008021284602F088FD02463E4841A1823809
:1008000006F046F83B488238FFF784FE4021284630
:1008100002F07AFD024637483AA1823806F038F8ED
:1008200034488238FFF776FE4FF40041204602F04C
:100830006BFD02462F4833A1823806F029F82D4877
:100840008238FFF767FE4FF48041204602F05CFDDE
:10085000024628482BA1823806F01AF8254882382B
:10086000FFF758FE4FF40051204602F04DFD0246BE
:10087000204824A1823806F00BF81E488238FFF782
:1008800049FE4021274802F03FFD024619481DA1BC
:10089000823805F0FDFF17488238FFF73BFE1CA0A9
:1008A000FFF738FEFF20FFF749FEFF20FFF746FE67
:1008B000BDE87040FF2041E6FEB51BA10646D1E928
:1008C0000001CDE900011AA000210A4D0068283D71
:1008D000A5F1280202900C46A2F132006C54545447
:1008E0004454491CC9B23229F8D30A210170FF27A8
:1008F00047701FE022020020B86002400050004014
:1009000074000000256400002E7478743D0000001F
:10091000220000002E7478743D220000000802407E
:1009200000000240001002402E76616C3D00000085
:100930006A0000008770C7700022AFF23801FE48DD
:1009400005F0A6FFFC4902A805F0A2FCFA4802A99E
:10095000323805F09DFCF8486946323805F098FCBD
:100960003246AFF26001F44805F092FFF249A1F17E
:10097000320005F08DFC2F706F70EF49AF70EC7096
:1009800028312C71A1F15A0005F082FCEA48323876
:10099000FFF7AEFDFEBD7CB5E84E304603F064FBCC
:1009A000E74DA968002440EA01400190304603F079
:1009B0005BFBA96840EA014001990090411A00D50B
:1009C0004942322900DA641C0190022CEEDB0098C7
:1009D000002800DA40427CBD7CB54FF080463046AE
:1009E00003F042FBD64DE968002440EA0140019043
:1009F000304603F039FBE96840EA01400199009074
:100A0000411A00D54942322900DA641C0190022CB7
:100A1000EEDB0098002800DA40427CBD10B5FFF7FD
:100A2000BAFF0446FFF7D8FF002C00DA6442002822
:100A300000DA4042204410BD01B581B0019800EBBE
:100A4000C00040000090002801D0401EFAE70CBD15
:100A500001B581B044F250610198484300900028EC
:100A600001D0401EFAE70CBD2DE9FC4101211F20F9
:100A700002F0B2FD01248DF8044000268DF80660D6
:100A80004FF6FF758DF80740032700958DF8057028
:100A90006946AC4802F0D2FB8DF804408DF8066040
:100AA0008DF8074000958DF805706946A64802F05C
:100AB000C5FB8DF804408DF806608DF80740009561
:100AC0008DF805706946A14802F0B8FBBDE8FC81CD
:100AD0007CB501217E2002F07FFD0024C0208DF82E
:100AE0000440012500908DF8075002268DF805601E
:100AF0006946974802F0A2FB06208DF8044000905A
:100B00008DF807508DF8056069468E4802F096FB17
:100B100004208DF8044000908DF807508DF8056092
:100B20006946894802F08AFB7CBD1FB54FF4E0603E
:100B300002F0CCFA36208DF80C0000248DF80D4020
:100B40008DF80E4001208DF80F0003A802F0C3FAC3
:100B50000121102002F05EFD3220ADF80000ADF85A
:100B60000840ADF8024040F2E7307A4C0190694607
:100B7000204603F033FA0121204603F0D8FD01227C
:100B80001146204603F0B3FD0021204603F068FA29
:100B90000121204603F09AFA1FBD1FB54FF4E06013
:100BA00002F094FA37208DF80C0000248DF80D40E7
:100BB0008DF80E4001208DF80F0003A802F08BFA8B
:100BC0000121202002F026FD4FF4FA70ADF800005C
:100BD000ADF80840ADF8024040F2E7305E4C0190BD
:100BE0006946204603F0FAF90121204603F09FFDF3
:100BF00001221146204603F07AFD0021204603F031
:100C00002FFA0121204603F061FA1FBD70B58AB0AA
:100C10000121022002F008FD01210C2002F0DCFC81
:100C2000494E03220621304602F091FB03220721A0
:100C3000304602F08CFB03220821304602F087FB8D
:100C400003220921304602F082FB4FF470700590B8
:100C500002208DF8180003208DF8190000248DF86B
:100C60001A4001258DF81B5005A9304602F0E6FA1E
:100C7000A420ADF81C0040F6B83008902802374E8A
:100C8000ADF82400ADF81E4007A9304603F0A6F9E0
:100C90006020ADF80000ADF802500294ADF80C40B1
:100CA0000121304603F012FA0021304603F0D8F952
:100CB0006946304603F014FA6946304603F03CFAC0
:100CC0006946304603F074FA6946304603F0AAFAE2
:100CD0000121304603F0ECFC0AB070BD70B58AB05B
:100CE0000121082002F096FC0121084602F074FC64
:100CF000174E02220021304602F029FB0222012178
:100D0000304602F024FB02221146304602F01FFB5F
:100D100002220321304602F01AFB0F200590022028
:100D20008DF81800032000248DF819008DF81A4062
:100D300001258DF81B5013E0D20100200000014076
:100D4000040000200004024000080240000C0240A1
:100D50000000024000100040001400400004014068
:100D600005A9304602F06AFABA20ADF81C0042F23A
:100D700010700890ADF82440ADF81E4007A9FE4E53
:100D8000304603F02BF96020ADF80000ADF80250BA
:100D90000294ADF80C400121304603F097F9002190
:100DA000304603F05DF96946304603F099F969462B
:100DB000304603F0C1F96946304603F0F9F9694657
:100DC000304603F02FFA0121304603F071FC83E72F
:100DD00070B58AB00121042002F01CFC01210D2015
:100DE00002F0FAFBE54E02220C21304602F0AFFA87
:100DF00002220D21304602F0AAFA02220E213046CC
:100E000002F0A5FA02220F21304602F0A0FA4FF4B8
:100E10007040059002208DF8180003208DF819000D
:100E200000248DF81A4001258DF81B5005A9304685
:100E300002F004FAA420ADF81C0040F6B830089087
:100E40002802CF4EADF82400ADF81E4007A9304669
:100E500003F0C4F86020ADF80000ADF80250029431
:100E6000ADF80C400121304603F030F90021304646
:100E700003F0F6F86946304603F032F96946304629
:100E800003F05AF96946304603F092F96946304654
:100E900003F0C8F920E770B5012188B0080402F01A
:100EA000C3FB0121084602F097FBB64E0322114610
:100EB000304602F04CFA03220221304602F047FA93
:100EC0000C20009002208DF8040003208DF805000E
:100ED00000248DF8064001258DF8075069463046FC
:100EE00002F0ACF94FF6FF70A74EADF80840039042
:100EF000ADF81040ADF80A4002A9304603F06EF894
:100F00000420ADF81400C820ADF81C00ADF8164060
:100F1000ADF8185005A9304603F01AFB9B4C00238E
:100F20001A460321204603F07CFC0121204603F0F1
:100F3000FEFB01221146204603F0D9FB0121304679
:100F400003F0C4F80021204603F08AF808B070BD11
:100F50002DE9F04701218AB0084602F05BFB012130
:100F6000022002F057FB0121032002F035FBDFF8DD
:100F7000149201220F21484602F0E9F9DFF81082AD
:100F800001220321404602F0E2F9022204214046F8
:100F900002F0DDF902220521404602F0D8F90226CE
:100FA0008DF80460032738208DF805700024009028
:100FB0008DF8064001258DF807506946404602F03D
:100FC0003DF98DF80460E8038DF8057000908DF808
:100FD00006408DF807506946484602F02FF94FF653
:100FE000FF70ADF80C4004904FF08049ADF814400C
:100FF000ADF80E4003A9484602F0F0FFDFF894A1D7
:1010000003A9504602F0EAFF4FF004081420ADF89F
:101010001880ADF82000ADF81A60ADF81C5006A994
:10102000484603F095FA06A9504603F091FA0223C8
:101030001A460321484603F0F4FB02231A46032113
:10104000504603F0EEFB0121484603F070FB0121FE
:10105000504603F06CFB01221146484603F047FB63
:1010600001221146504603F042FB0121484603F09D
:101070002DF80121504603F029F80021484602F0DE
:10108000EFFF0021504602F0EBFF780202F01EF85D
:101090001D208DF808008DF809708DF80A408DF834
:1010A0000B5002A802F017F81C208DF808008DF8EC
:1010B00009808DF80A408DF80B5002A802F00BF859
:1010C0000AB0BDE8F08770B501218AB0084602F089
:1010D000ABFA0121102002F07FFA4FF4206000905B
:1010E00002208DF8040003208DF8050000242A4E0C
:1010F0008DF8064001258DF807506946304602F00C
:101100009DF801220921304602F021F901220B212C
:10111000304602F01CF94FF6FF701B4EADF8084048
:101120000390ADF81040ADF80A4002A9304602F035
:1011300055FF0420ADF814000A20ADF81C00ADF8EE
:101140001640ADF8185005A9304603F001FA002307
:101150001A460321304603F064FB0121304603F0B8
:10116000E6FA01221146304603F0C1FA0121304669
:1011700003F0DDFA012211E0000C0040000C0240F7
:101180000008004000000240000001400040014013
:1011900000040240000400400010024011463046A6
:1011A00003F0A5FA0121304602F090FF00213046FD
:1011B00002F056FF4FF4C06001F088FF19208DF84F
:1011C00020008DF821508DF822408DF8235008A87A
:1011D00001F081FF80E52DE9F0418AB00121042072
:1011E00002F018FA0121082002F0F6F94FF44050FD
:1011F0000226009003208DF8046000248DF805007D
:101200008DF8064001258DF807506946FE4F384697
:1012100002F014F84FF6FF70DFF8F083ADF80840E5
:101220000390ADF81040ADF80A4002A9404602F024
:10123000D5FE02220C21384602F089F802220D2147
:10124000384602F084F80427C820ADF81470ADF8D1
:101250001C00ADF81660ADF8185005A9404603F023
:1012600077F902231A460321404603F0DAFA0121F6
:10127000404603F05CFA01221146404603F037FA7B
:101280000121404602F022FF42F21071404602F076
:10129000E7FEDE4814300480A8F800504FF4C06028
:1012A00001F014FF1E208DF820008DF821708DF8BC
:1012B00022408DF8235008A801F00DFF0AB0BDE8C8
:1012C000F0812DE9F0418AB00121082002F0A2F955
:1012D0000121084602F080F9032002268DF80460FF
:1012E0008DF805000024CA4F00908DF806400125B6
:1012F0008DF807506946384601F0A0FF4FF6FF70A1
:10130000DFF81083ADF808400390ADF81040ADF859
:101310000A4002A9404602F061FE0222002138463E
:1013200002F015F802220121384602F010F80427D5
:10133000C820ADF81470ADF81C00ADF81660ADF81B
:10134000185005A9404603F003F902231A46032169
:10135000404603F066FA0121404603F0E8F9012215
:101360001146404603F0C3F90121404602F0AEFEAB
:1013700042F21071404602F073FEA6481430048019
:10138000A8F800504FF4C06001F0A0FE32208DF8A4
:1013900020008DF821708DF822408DF8235008A888
:1013A00001F099FE8AE72DE9F0419CB001219A48AD
:1013B00002F012F901210D02284602F035F9974892
:1013C0000024CDE90040964802A94FF0080881E8C2
:1013D0001101A800CDE90540400007908000CDE94B
:1013E00008050AA90001012581E831008D4E0D9400
:1013F000694630460E9402F0E7FB0121304602F0C8
:101400001CFC03273C268DF8587015968DF85B4020
:1014100015A97F4801F012FF8DF8587015968DF8C8
:101420005B4015A9804801F009FF3804CDE9174059
:10143000B001CDE9194017A802F0CBF9119412942C
:1014400013942806754C0F908DF840504C3C8DF845
:1014500041508DF850800FA9204602F08FF90423E7
:1014600001220221204602F0FEF904230222032178
:10147000204602F0F8F9042303221946204602F020
:10148000F2F904231A460521204602F0ECF9042360
:1014900005220C21204602F0E6F9042306220D2144
:1014A000204602F0E0F9042307220E21204602F034
:1014B000DAF9042308220F21204602F0D4F9012191
:1014C000204602F04DFA0121204602F03FFA0121A8
:1014D000204602F095F9204602F0FFF91CB0EEE636
:1014E00008B54FF4E06001F0F1FD25208DF8000013
:1014F00000208DF801008DF8020001208DF8030016
:10150000684601F0E8FD08BD70B5054696B00121BA
:10151000102002F089F80121084602F05DF801214F
:10152000880502F059F84FF4C060139002208DF83E
:10153000500000248DF852408DF85340344E8DF801
:10154000510013A9304601F079FE072209213046E7
:1015500001F0FDFE07220A21304601F0F8FE0F954A
:10156000ADF844400C20314DADF84040ADF8460098
:10157000ADF84240ADF848400FA9284603F0C7F93E
:101580000121284603F034FA4FF4A06001F09EFDDB
:101590003A208DF854008DF855408DF856400120C2
:1015A0008DF8570015A801F096FD1E4E30363046D6
:1015B00002F082FA4FF0006000901948694610303E
:1015C000CDE902040A200490281D01900015CDE900
:1015D00005408010CDE9084040020A9004200B909D
:1015E00007940320CDE90C0430460E9402F0ECFA87
:1015F00001224021284603F092FA012210213046B0
:1016000002F090FB012113E0000C024000080040B2
:1016100000000240000C0040050040004C2001404A
:1016200054020020106402400008024000100140F3
:10163000304602F002FB16B070BDF0B5064601213F
:1016400097B0480501F0C8FF01214D04284601F07C
:10165000E1FF0121082001F0BFFF6020139002206C
:101660008DF8500000248DF852408DF85340FB4F08
:101670008DF8510013A9384601F0E0FD072205213D
:10168000384601F064FE07220621384601F05FFE6D
:101690000F96ADF844400C20F14EADF84040ADF847
:1016A0004600ADF84240ADF848400FA9304603F07F
:1016B0002EF90121304603F09BF94FF4A06001F0B0
:1016C00005FD11208DF854008DF855408DF85640D9
:1016D00001208DF8570015A801F0FDFCE14F3846B8
:1016E00002F0EAF9A802009040200390DE48029040
:1016F0003C200490301D01900015CDE9054080107C
:10170000CDE908400420CDE90A5007940320CDE933
:101710000C04694638460E9402F056FA01228021E4
:10172000304603F0FCF901228021304603F0F7F93E
:1017300001221021384602F0F5FA0121384602F064
:101740007CFA17B0F0BD70B50546012196B088044B
:1017500001F060FF0121082001F03EFF0121480552
:1017600001F03AFF4FF44070139002208DF85000C2
:1017700000248DF852408DF85340B84E8DF851003A
:1017800013A9304601F05AFD07220821304601F026
:10179000DEFD07220921304601F0D9FD0F95B34E39
:1017A000ADF84040ADF844400C25ADF84240ADF8EE
:1017B0004840ADF846500FA9304603F0A8F8012183
:1017C000304603F015F94FF4A06001F07FFC8DF86E
:1017D00054508DF855408DF8564001208DF8570033
:1017E00015A801F078FC9F4D783D284602F064F979
:1017F0004FF0006000909E48CDE90204082004905C
:10180000301D01900015CDE905408010CDE908405C
:1018100040020A9004200B9007940320CDE90C04A9
:10182000694628460E9402F0CFF901224021304645
:1018300003F075F901224021304603F070F90122CE
:101840001021284602F06EFA0121284602F0F5F92F
:10185000F1E6F0B50546012197B0C80401F0DAFEC3
:101860000121042001F0B8FE0121480501F0B4FE79
:101870004FF44060139002208DF8500000248DF842
:1018800052408DF853407B4E8DF8510013A93046DD
:1018900001F0D4FC08220A21304601F058FD08224C
:1018A0000B21304601F053FDADF844400C20724E40
:1018B000ADF84040ADF846000F95ADF84240ADF8A8
:1018C00048400FA9304603F022F80121304603F0CA
:1018D0008FF84FF4A06001F0F9FB0D208DF8540053
:1018E0008DF855408DF8564001258DF8575015A8B4
:1018F00001F0F1FB5B4F603F384602F0DDF8E8068F
:1019000000905B4802A9193881E83100301D019030
:101910000015CDE905408010CDE9084040020A904D
:1019200004200B9007940320CDE90C046946384647
:101930000E9402F049F901224021304603F0EFF8FD
:1019400001224021304603F0EAF8012210213846F6
:1019500002F0E8F90121384602F06FF9F1E62DE9CD
:10196000F041054696B00121202001F05DFE0121E5
:10197000042001F031FE0121880501F02DFEC02078
:10198000139002208DF8500000248DF852408DF8FD
:101990005340384E8DF8510013A9304601F04EFCEB
:1019A00008220621304601F0D2FC082207213046E9
:1019B00001F0CDFCADF844400C20DFF8C080ADF85C
:1019C0004040ADF846000F95ADF84240ADF84840B4
:1019D0000FA9404602F09BFF0121404603F008F8A2
:1019E0004FF4A06001F072FB39208DF854000326FB
:1019F0008DF8556001258DF856508DF8575015A873
:101A000001F069FB1E4F384602F056F8B805009009
:101A1000174802A90A3881E8310008F10400019052
:101A20000015CDE905408010CDE90840400207943B
:101A30000A900420CDE90C640B90694638460E9458
:101A400002F0C2F801224021404603F068F801216B
:101A5000384602F0F2F816B031E40000000C024003
:101A600000440040A0600240BC000020004800404C
:101A70008C02002000080240004C0040001401408D
:101A8000286402402DE9F0418046012196B04805C6
:101A900001F0A2FD0121080501F0BCFD01210C208F
:101AA00001F09AFD042602258DF8405000248DF89F
:101AB00042408DF843400F968DF841500FA9FE4FDC
:101AC000384601F0BBFB8DF840508DF842408DF850
:101AD0004340E8028DF84150F84D0F900FA9284679
:101AE00001F0ACFB08220221384601F030FC08224C
:101AF0000C21284601F02BFC4FF4A06001F0E6FA1F
:101B00002F208DF8540005208DF855008DF85600D3
:101B100001208DF8570015A801F0DDFAADF84C4012
:101B20000C20E74DADF84840ADF84E00CDF84480AC
:101B3000ADF84A40ADF8504011A9284602F0E7FE42
:101B40000121284602F054FFDE4F384601F0B4FF71
:101B50007006009040200390DB48029031200490F2
:101B6000281D01900015CDE905408010CDE9084001
:101B70004002CDE90A0607940320CDE90C0469462A
:101B800038460E9402F020F801228021284602F007
:101B9000C6FF01221021384602F0C4F80121384660
:101BA00002F04BF857E730B585B00121082001F06D
:101BB00013FD0121880301F037FD00240C208DF86E
:101BC0001040012503908DF8135003A9BA4801F085
:101BD00035FB0221032003F00CF8042000908DF85F
:101BE000044010208DF805008DF80650684602F07C
:101BF00001F908208DF808008DF809408DF80A4099
:101C00008DF80B5002A801F066FA05B030BD10B592
:101C1000012810D0032819D0042822D0052809D182
:101C2000A74C204602F00AFF4021204602F097FF11
:101C30000028F9D010BDA54C204602F0FFFE40213F
:101C4000204602F08CFF0028F9D010BDA04C2046A1
:101C500002F0F4FE4021204602F081FF0028F9D076
:101C600010BD9C4C204602F0E9FE4021204602F0C7
:101C700076FF0028F9D010BD9749002048629749A7
:101C800088609749086095498031C86270479249D9
:101C900000204862914988604FF080425062C860DD
:101CA000904A106008618E4908608C498031C86292
:101CB00070474FF08041002048628849C8607047F3
:101CC00088490020086085490861704770B5834DD8
:101CD0000020A870044661210120FFF798FF322000
:101CE000FEF7B6FE641C022CF5D30120A8707A2002
:101CF000687070BD70B5794D00202871044661216F
:101D00000320FFF784FF3220FEF7A2FE641C022CA2
:101D1000F5D3012028717A20E87070BD2DE9F14FCC
:101D200096B0002014908DF800008DF828006E4ABF
:101D30006A4865494FF40045169B604C803032314B
:101D400097156E104FF480684FF48059122B5BD2B8
:101D5000DFE803F009282C3135393D41474D535A0E
:101D60005A5A5A5A5DB00221104601F0CDFA60B1BC
:101D700000222946204601F0DFFA2946204601F0DC
:101D8000CDFA0146002259A03CE001222946204616
:101D900001F0D2FA2946204601F0C0FA014600229D
:101DA0005AA02FE08168012260A02BE06148022246
:101DB000017861A026E0016B032261A022E0416B63
:101DC000042262A01EE08988052263A01AE04988E7
:101DD000062265A016E03C4860300178072265A025
:101DE00010E0FEF7F9FD01460A2266A00AE0FEF7C0
:101DF000D2FD0146092265A004E038480822F430EB
:101E0000017864A0FEF708FC17B0BDE8F08FDFF89A
:101E100090A10121504601F077FA024661A168467F
:101E200004F036FD69460AA804F032FA0221504651
:101E300001F06AFA02465BA1684604F029FD694692
:101E40000AA804F025FA0421504601F05DFA024682
:101E500054A1684604F01CFD69460AA804F018FA6B
:101E60000821504601F050FA02464EA1684604F09F
:101E70000FFD69460AA804F00BFA1021504601F044
:101E800043FA024647A1684604F002FD69460AA8E3
:101E900004F0FEF92021504601F036FA024641A135
:101EA000684604F0F5FC69460AA804F0F1F94021FF
:101EB000504679E008E10000000C024000080240B2
:101EC00000500040B8600240220200200010014093
:101ED00000480040004C0040000001400400002089
:101EE000240800402404004000040240524F424FA6
:101EF0005420322044414E47204348415920534109
:101F00004E2058414E483A2020200000524F424F68
:101F10005420322044414E472043484159205341E8
:101F20004E20444F3A20202000000000494D553AF1
:101F3000000000000000002043616D6572613A00FE
:101F40004C415A45525F545241493A004C415A451E
:101F5000525F504841493A004249454E2054524F41
:101F6000204D414D3A0000004249454E2054524F09
:101F700020593A0020444154415F434F4C4F525B3B
:101F8000305D3A00454E5F46523A0000454E5F468E
:101F90004C3A000047414D455F5041443A00000033
:101FA000001002402564000001F0AEF90246AFF2D5
:101FB0000C01684604F06CFC69460AA804F068F954
:101FC0008021504601F0A0F90246AFF22801684690
:101FD00004F05EFC69460AA804F05AF939465046F6
:101FE00001F092F90246AFF24401684604F050FC59
:101FF00069460AA804F04CF94146504601F084F9BC
:102000000246AFF26001684604F042FC69460AA845
:1020100004F03EF94946504601F076F90246AFF227
:102020007C01684604F034FC69460AA804F030F9E3
:102030004FF400573946504601F066F90246AFF2B8
:102040009C01684604F024FC69460AA804F020F9C3
:102050003146504601F058F90246AFF2B8016846E1
:1020600004F016FC69460AA804F012F92946504605
:1020700001F04AF90246AFF2D401684604F008FCC8
:1020800069460AA804F004F93946204601F03CF9F3
:102090000246AFF2F001684604F0FAFB69460AA86E
:1020A00004F0F6F83146204601F02EF90246AFF270
:1020B0000C11684604F0ECFB69460AA804F0E8F845
:1020C00010220AA9FBA0ECE080219346104601F003
:1020D00025F90246AFF23411684604F0D9FB69468F
:1020E0000AA804F0D5F8BA463946204601F016F998
:1020F0000246AFF25011684604F0CAFB69460AA8CE
:1021000004F0C6F84FF40071204601F007F90246CA
:10211000AFF27011684604F0BBFB69460AA804F0F0
:10212000B7F844464146584601F0F8F80246AFF287
:102130008C11684604F0ACFB69460AA804F0A8F8C4
:102140004FF400684146584601F0E8F80246AFF205
:10215000AC11684604F09CFB69460AA804F098F8A4
:102160004F464946584601F0D9F80246AFF2CC1125
:10217000684604F08DFB69460AA804F089F84FF41C
:102180000051584601F0CAF80246AFF2E81168461D
:1021900004F07EFB69460AA804F07AF831465846F6
:1021A00001F0BCF80246AFF20421684604F070FB6F
:1021B00069460AA804F06CF82946584601F0AEF8C2
:1021C0000246AFF22021684604F062FB69460AA885
:1021D00004F05EF82146B84C204601F09FF8024614
:1021E000AFF24021684604F053FB69460AA804F0A8
:1021F0004FF83146204601F091F80246AFF25C21DB
:10220000684604F045FB69460AA804F041F84146D7
:10221000204601F083F80246AFF27821684604F0C8
:1022200037FB69460AA804F033F8A44C514620460F
:1022300001F074F80246AFF29421684604F028FBDE
:1022400069460AA804F024F84146204601F066F8E1
:102250000246AFF2B021684604F01AFB69460AA8AC
:1022600004F016F83946204601F058F80246AFF25D
:10227000CC21684604F00CFB69460AA804F008F873
:102280004021584601F04AF80246AFF2E82168467C
:1022900004F0FEFA69460AA803F0FAFF11220AA91F
:1022A00087A0FEF718FAAFE50121874801F0C5BC09
:1022B00011B48648816A009A914201DD002101E053
:1022C000816A491C8162806A18BC27E52DE9F047C4
:1022D0000025794E074601244FF400594FF48048F9
:1022E0004FF4805A00224146304601F025F8102074
:1022F000FEF7A2FB274201D0012200E0002249465E
:10230000304601F019F801224146304601F014F838
:102310001020FEF791FB5146304600F0F5FF00B16A
:102320002543600010F0FF04DCD12846BDE8F087AB
:1023300070B5614E4FF4004500222946304600F04A
:10234000FBFF1020FEF778FB0120FFF7BFFF4220C4
:10235000FFF7BCFFFF20FFF7B9FFFF20FFF7B6FF35
:102360005A4C74342070FF20FFF7B0FF6070FF20DC
:10237000FFF7ACFFA070FF20FFF7A8FFE070FF2081
:10238000FFF7A4FF2071FF20FFF7A0FF607129462F
:102390003046BDE87040012200F0CEBF70B5464E19
:1023A0004FF4004500222946304600F0C5FF1020BA
:1023B000FEF742FB0120FFF789FF4220FFF786FF6F
:1023C000044601222946304600F0B6FF1020FEF7F1
:1023D00033FB204670BD3D4A0021803A5161C279ED
:1023E0003A4974310D2A09D0FF200870487088706E
:1023F000C8700871487188710020704702780A70AF
:1024000042784A7082788A70C278CA7002790A71FA
:1024100042794A7180798871012070472B48743065
:10242000A0F1F4010278FF2A05D14278FF2A02D1F7
:102430008278FF2A09D04A69531C4B61C82A03DD00
:10244000FF21017041708170704700204861704722
:102450001E487430807970471C48743000784006FC
:1024600001D401207047002070471848743000786C
:10247000800701D4012070470020704701B59DF806
:102480000000052801D2002008BD9DF8000008BD0D
:10249000F0B50E4E0127803E1D464FF0000C06F1B0
:1024A000B804002814D017DDC0B2FFF7E7FFE071D1
:1024B000A77118E0493A0000000C024000000240F9
:1024C0004F55543A00000000A060024084000020F4
:1024D00096F84000E07106E04042C0B2FFF7CEFF40
:1024E000E07184F806C0002907D00ADDC8B2FFF702
:1024F000C5FFE07084F802C009E096F84000E07083
:1025000005E04842C0B2FFF7B9FFE070A770002AAB
:1025100006D009DDD0B2FFF7B1FFE073A7730AE080
:1025200096F84000E07306E05042C0B2FFF7A6FF05
:10253000E07384F80EC0002D07D00ADDE8B2FFF783
:102540009DFFE07284F80AC0F0BD96F84000E0728A
:10255000F0BD6842C0B2FFF791FFE072A772F0BD14
:10256000FE49C871C870C873C8727047FB48C1790A
:1025700003290AD2C178032907D2C17B032904D2D7
:10258000C07A032801D20120704700207047F34928
:102590000120383948627047F048B838806EA0F59D
:1025A000EA41303901D00120704700207047FFF721
:1025B0008DBBEA48B838B0F9060040427047E7489A
:1025C000B5EEC00AB838D0ED070AF1EE10FA02D223
:1025D00030EE600A01E030EE200ABDEEC00A10EED7
:1025E000100A704710B5041EDC482DED048BA0F1D5
:1025F000B8009FEDDB8B406D10D014DA03F0EFFFD5
:1026000041EC190B204603F0EAFF53EC182B03F0C2
:1026100005FF53EC182B03F0FBFE13E09FEDD20AED
:10262000BDEC048B10BD03F0DAFF41EC190B204622
:1026300003F0D5FF53EC182B03F0F0FE53EC182BEE
:1026400003F045FE53EC192B03F05AFF03F0EBFFA8
:1026500000EE100AE4E7B5EEC00AF1EE10FA01DA76
:10266000B1EE400A7047002800DA40427047BB498B
:10267000B83991ED0E0AD1ED0F1AF1EE400A80EE55
:10268000A11A00EE900AF8EEE00A01EE200ABDEE73
:10269000C00A10EE100A7047B0EE402A9FEDB30A50
:1026A000B5EEC02AF1EE10FA01D2B1EE422AF5EEF3
:1026B000C00AF1EE10FA01D2F1EE600AB5EEC01ACE
:1026C000F1EE10FA01D2B1EE411AF5EEC01AF1EEB8
:1026D00010FA01D2F1EE611AB4EEC02AF1EE10FA4E
:1026E00001DDB0EE420AF4EEC00AF1EE10FA01DDAF
:1026F000B0EE600AB4EEC01AF1EE10FA01DDB0EEF1
:10270000410AF4EEC01AF1EE10FA01DDB0EE610AF2
:1027100070479248B838406D704790483838006824
:10272000704770B58D4D2DED048BB83DB0EE408AED
:10273000A86E05F18004A0F5EA4130393FD0A168C8
:102740006A6F95ED0A1A891A401A00EE100AB8EE5F
:10275000C00AC0EE010A95ED0B0A30EE800AD5EDF5
:10276000120A60EE208AB0EE680A04F061F9B0EE59
:10277000009A20EE090A84ED080AB0EE680A04F017
:10278000AFF860EE090AC4ED070A94ED081A95ED5A
:102790001F0A31EE001A30EEC00A84ED051A84EDEE
:1027A000060A00BFB5EEC08AF1EE10FA6ED0286DB1
:1027B00005286BD2DFE800F00E1F324156009FED76
:1027C0006A0A84ED080A84ED070A84ED060A84ED9E
:1027D000050AE7E794ED050A30EE080A84ED050ADC
:1027E00094ED060A30EE480A84ED060A94ED070AD5
:1027F00030EE080A1EE094ED060A30EE480A84ED39
:10280000060A94ED070A30EE080A84ED070A94EDF3
:10281000080AD5ED080A08EE600A20E094ED050AE2
:1028200030EE080A84ED050A94ED070AD5ED080A92
:1028300008EE200A84ED070A0DE094ED050A30EE5B
:10284000080A84ED050A94ED060AD5ED080A08EE9B
:10285000600A84ED060A94ED080A30EE480A84ED19
:10286000080A13E094ED050AD5ED080A08EE200ADF
:1028700084ED050A94ED060A30EE480A84ED060A56
:1028800094ED070A30EE080A84ED070A143494EC3C
:10289000040AFFF701FFD5ED060AF8EEE00A80EE24
:1028A000801ABDEEC10A10EE100AE865696D81421A
:1028B00000DD68650120E864BDEC048B70BD27492C
:1028C0000022B83900288A65086611D14A659FED53
:1028D000260A47F2305081ED1F0A8866C86681EDEE
:1028E0001E0A0A6501F180000A670260426218E769
:1028F00070471A48B83890ED1E0AB5EEC00AF1EEDE
:1029000010FA04D1016D11B9016F00290BD000211B
:102910009FED150A80ED1E0A016501670F493839E0
:1029200089684167FDE670470C48B838C0ED0E0A6B
:1029300080ED0F0A7047094AB83A936E834209D175
:10294000936D8B4206D1D2ED1F0AF4EE400AF1EEF0
:1029500010FA1AD09165516D61B909E0BC000020F0
:102960009A9999999999B93F000000006F12833A9A
:1029700005215165FC498968516782ED1F0A9066FF
:102980000020506692ED1E0ACBE67047F64A30B43E
:10299000803A136F834209D1D2ED1E0AF4EE400A49
:1029A000F1EE10FA02D1136D8B4227D0946E47F2EC
:1029B00030539C421AD1322494650F2454659842B6
:1029C00014DAB5EEC00A0124E74BF1EE10FA1C60F0
:1029D00002DD9C68844207DCB5EEC00AF1EE10FA15
:1029E00004D29B68834201DAB1EE400A1165106798
:1029F00082ED1E0A0020506630BC92E630BC704763
:102A0000014647F23050C1E71FED290A93E710B5A0
:102A1000D5492DED028B8039F0EE608AD1ED1B0A8D
:102A2000B0EE418AF8EEE00AF4EE400AF1EE10FA58
:102A30000BD18A6D824208D1D1ED1C0AF8EEE00A72
:102A4000F4EE680AF1EE10FA4BD0FDEEC00AC64C67
:102A5000C1ED1B0AD4ED020AF8EEE00A30EE600A7E
:102A6000BDEEC00A10EE102A1FED410A01461046C5
:102A7000FFF761FF94ED020AF8EEC00A78EEE00A73
:102A8000FDEEE00A10EE900A002800DA4042B8EEAF
:102A9000C00A642818DDF4EEC08AF1EE10FA01DCF9
:102AA000B1EE488A18EE100A03F0AAFD03F0BBFD50
:102AB000FDEEE80ABDEC028B00EE100ABDE8104006
:102AC000002110EE900A61E738EEC00A10EE100AFD
:102AD00003F096FD9FEDA51B53EC112B03F09EFC1C
:102AE000E4E7BDEC028B10BD9F4910B508680128D2
:102AF00028DDA1F180028B68106FC01AFFF7B3FDCB
:102B0000062809DA0868421C0A60B0F5FA7F19DD68
:102B1000BDE810400020D2E605200B689065FA2B36
:102B2000506501DDFB2008608868116F884202DD76
:102B3000BFEE000A01E0B7EE000A82ED1E0ABDE812
:102B40001040EEE510BD70B58749803991ED1F0A40
:102B5000B5EEC00AF1EE10FA72D14B6D002B6FD0BA
:102B6000086F47F23054A0426ADA91ED1E0A7E4A9D
:102B7000B5EEC00AF1EE10FA7DD08D6EA54260D19F
:102B8000B5EEC00A0B46F1EE10FA5B6B03DD9568FB
:102B9000C41AAC4208DBB5EEC00AF1EE10FA17D247
:102BA00094680344A34213DD1368032B48DA936847
:102BB000C01AFFF758FD0A28086F0ADA5060002093
:102BC00048651FED970A886581ED1E0A0220106096
:102BD00079E091ED150AD1ED1E0A9368B8EEC00AAE
:102BE000984260EE200A91ED0D0AB8EEC01A80EE10
:102BF000810A0FDDFFF72FFD086F9268801AFFF73B
:102C000032FD00EE900AB8EEE01AD1ED090A40EE6E
:102C1000010A0EE0FFF71FFD086F9268801AFFF7A8
:102C200022FD00EE900AB8EEE01AD1ED090A50EE4E
:102C3000410A91ED150AB8EEC01A80EE810A42E011
:102C400046E04949B5EEC00A8039D1ED0C0AF1EEF3
:102C500010FA18DD01EE100AF8EEC11A01EE103A72
:102C6000B8EEC11A41EE401AB8EEE01A71EEC11A80
:102C700092ED021A00E029E0B8EEC11AF4EEC11A92
:102C8000F1EE10FA1BD3B5EEC00AF1EE10FA1AD22B
:102C900001EE100AF8EEE00AF8EEC11A01EE103A61
:102CA000B8EEC11A41EE401A31EEA01AD2ED020A76
:102CB000F8EEE00AB4EEE01AF1EE10FA03DD9168E6
:102CC000401AFFF78FFCBDE870402AE5486FF6E731
:102CD00070BD254A10B41068A2F1800102280CDAF8
:102CE0001FEDDF0A002381ED1F0A81ED1E0A47F266
:102CF00030500B658866C1E91B034C6E1A48641C92
:102D00004C6680384B6C006C9C4202DB4B66516A0F
:102D100009B110BC24E40020FBE7134A803A536E4B
:102D20005B1C5366834204DD506D084450650020EF
:102D30005066704770B5FFF73CFC0B4CA060FFF786
:102D4000D3FEA4F180054FF0FF31AA6D686D002A13
:102D500012DD904215D00DDAE96D884211DAFFF7E5
:102D600086FC01210BE00000840000207B14AE47AC
:102D7000E17A743F206902E000283CDD286EFFF70D
:102D8000CCFFD4E90201814203D0FFF7DCFEA0684A
:102D9000E060E86C002831D095ED150AD4ED080A02
:102DA000B8EEC00A20EE200AFFF709FC95ED150ADF
:102DB000D4ED070A0346B8EEC00A20EE200AFFF75A
:102DC000FEFB95ED150AD4ED060A0246B8EEC00AE0
:102DD00020EE200AFFF7F3FB95ED150AD4ED050A66
:102DE0000146B8EEC00A20EE200AFFF7E8FBBDE876
:102DF0007040FFF74DBBBDE870406AE770BD112021
:102E0000FFF756FA0F2002F0D2FEF8E7052002F095
:102E1000CEFEFBE7FFF78EFF052002F0C8FEF9E7C4
:102E20001FB5FDF721FEFDF753FEFDF7EFFEFDF7A1
:102E3000CFFFFDF753FFFEF78BF8FEF744F9FEF7DF
:102E4000CAF9FEF7B0FAFDF7A8FE4FF4E1342046C8
:102E5000FEF75AFB2046FEF7F0FB2046FEF773FC18
:102E60002046FEF77CFDE000FEF70CFEFEF72EFF8D
:102E7000FEF70DFF1B4800244FF48075047000948A
:102E80000194029423462A4617A11C48039402F099
:102E9000B7FC00940194029400232A4618A11D480F
:102EA000039402F0ADFCFEE77FB500244FF480757B
:102EB00000940194029423462A4617A119480394CA
:102EC00002F09EFC00940194029400232A4616A16D
:102ED0001848039402F094FC02F0B8FF04B00020FC
:102EE00070BD0000040000207461736B526F626F4C
:102EF00074416E616C79746963730000152E00086B
:102F00007461736B446965754B6869656E436F43A3
:102F1000617500000D2E00087461736B4D61696E60
:102F200000000000212E00087461736B4779726FF6
:102F300000000000FF2D00080CB500205149019051
:102F400000900A6842F480320A604FF4A0630A6875
:102F500002F400320092019A521C0192009A12B9B6
:102F6000019A9A42F3D10A68920334D50120009065
:102F700044484030026842F0805202604248026891
:102F800042F4804202603F480830026802600268F2
:102F900042F400420260026842F4A0520260031F41
:102FA0003A4A1A600A6842F080720A600A6892011E
:102FB000FCD5374A40F205611160016821F0030138
:102FC0000160016841F0020101600168C1F3810103
:102FD0000229FAD10CBD00900CBD2A4810B5016839
:102FE00041F001010160274A0021083211600268A6
:102FF000284B1A400260031D274A1A60026822F417
:10300000802202601F480C300160FFF795FF2349C2
:103010004FF00060086010BD70B51A4C083420688D
:103020001F4A10F00C011F4804D05510042903D08A
:10303000082903D002601BE0056019E01149091D51
:103040000B68C3F380560B6803F03F0316B1B5FB62
:10305000F3F201E0B2FBF3F20B680968C3F38813E3
:103060005A43C1F30141491C4900B2FBF1F101602F
:1030700021680C4AC1F30311121D515C0268CA4059
:10308000026070BD003802400070004008544007E4
:10309000003C0240FFFFF6FE1030002408ED00E087
:1030A0000024F4001001002006488047064800472D
:1030B000FEE7FEE7FEE7FEE7FEE7FEE7FEE7FEE7E8
:1030C000FEE7FEE7DB2F00088901000828490843D6
:1030D00028490860704730B50F22C4780178012371
:1030E000FCB1244C246801F1E02104F4E064C4F54F
:1030F000E064C4F30724C4F10405E2404478AC4022
:103100008578154025432A0181F80024007800F0D5
:103110001F018B404009800000F1E020C0F8003121
:1031200030BD01F01F0083404809800000F1E0201D
:10313000C0F8803130BD104A114001430D48001FD6
:10314000016070470B4A121D0029116801D001432C
:1031500000E08143116070474FF0E02104280869C6
:1031600003D020F004000861704740F00400FAE743
:103170000000FA050CED00E080FFFF1F7C4910B550
:10318000884206D10121084600F058FA00210120AA
:103190004FE07849884206D10121022000F04EFA22
:1031A0000021022045E07449884206D10121042013
:1031B00000F044FA002104203BE07049884206D127
:1031C0000121082000F03AFA0021082031E06C4982
:1031D000884206D10121102000F030FA0021102091
:1031E00027E06849884206D10121202000F026FA14
:1031F000002120201DE06449884206D101214020A1
:1032000000F01CFA0021402013E06049884206D1FA
:103210000121802000F012FA0021802009E05C49A1
:1032200088420AD184150121204600F007FA0021C6
:103230002046BDE8104000F001BA10BDF0B50023F3
:10324000012403270D6804FA03F21540954242D188
:10325000D0F800C05E0007FA06F52CEA050CC0F8AD
:1032600000C091F804C0D0F800E00CFA06FC4CEA6B
:103270000E0CC0F800C091F804C0BCF1010F02D0E0
:10328000BCF1020F1FD1D0F808C02CEA050CC0F821
:1032900008C091F805C0D0F808E00CFA06FC4CEA2A
:1032A0000E0CC0F808C0D0F804C02CEA020CC0F81C
:1032B00004C0426891F806C00CFA03FC1FFA8CFCAB
:1032C00042EA0C024260C268AA43C260CA79C56879
:1032D000B2402A43C2605B1C102BB3D3F0BD4FF643
:1032E000FF7101600021017141718171C1717047ED
:1032F00008B541F480320092C261C1610099C16198
:10330000C169C069009008BD0246002012690A42E6
:1033100000D001207047006980B27047024600204B
:1033200052690A4200D001207047406980B270475C
:1033300001837047418370470AB10183704741831D
:1033400070474161704742694A40426170474B078C
:10335000DB0E9A40C90810B500EB8100016A0F240A
:103360009C40A1430162016A1143016210BD00004B
:10337000000002400004024000080240000C02402D
:10338000001002400014024000180240001C0240DD
:1033900000200240EA48016841F001010160E84A6A
:1033A0000021083211600268E64B1A400260031DDA
:1033B000E54A1A60026822F480220260E0480C307C
:1033C00001607047DE490022891C0A70087070474E
:1033D00002460020510901290CD002290CD0D849FD
:1033E0007431096802F01F02012393400B4200D0A0
:1033F00001207047D249F4E7D1497031F1E718B59F
:1034000000204FF4A06400903120FFF7E1FF009905
:10341000491C0091A14201D00028F5D03120FFF7CE
:10342000D7FF002800D0012018BDC5490A6822F046
:10343000F80242EAC00008607047C449086070475B
:10344000BF49002270310A700A70012802D0042896
:1034500001D1052008707047BD490860704741EAF6
:1034600082115A0810B5BB4B029C03EB0242114378
:10347000014341EA0460B249091D086010BDB34927
:1034800008667047800140EA0170AD4984310860E8
:103490007047AE4988667047AC49C8647047A84A0F
:1034A00008321368084323F0EC6318431060704738
:1034B000A34A08321368084323F078431843106086
:1034C00070479F4A0832116821F0030101431160DF
:1034D00070479B480830006800F00C007047984A1D
:1034E0000832116821F0F001014311607047944ADD
:1034F0000832116821F4E05101431160704790498E
:1035000008310A6822F4604242EAC000086070474D
:1035100070B58B4A083211688F4C11F00C0104D041
:103520006610042903D0082903D004601BE006605C
:1035300019E08349091D0B68C3F380550B6803F03C
:103540003F0315B1B6FBF3F301E0B4FBF3F30C68F2
:103550000968C4F388146343C1F30141491C49005D
:10356000B3FBF1F1016011680F2303EA11117B4BEA
:103570005C5C0168E14041601468072505EA942419
:103580001C5D21FA04F48460126805EA52329A5CE8
:10359000D140C16070BDC0F30121032908D1684A40
:1035A0000832116821F4F8136D4901401943116084
:1035B000634970310A68C0F30B0002430A60704728
:1035C0006349443908607047614940390860704771
:1035D0005E49C1F85C017047594A303200291168D0
:1035E00001D0014300E0814311607047544A3432F6
:1035F0000029116801D0014300E081431160704748
:103600004F4A38320029116801D0014300E081435C
:10361000116070474A4A40320029116801D00143C5
:1036200000E0814311607047454A44320029116827
:1036300001D0014300E0814311607047404A1032DD
:103640000029116801D0014300E0814311607047F7
:103650003B4A14320029116801D0014300E0814344
:1036600011607047364A18320029116801D00143B1
:1036700000E0814311607047314A2032002911680F
:1036800001D0014300E08143116070472C4A24328D
:103690000029116801D0014300E0814311607047A7
:1036A000274A50320029116801D0014300E08143CC
:1036B00011607047224A54320029116801D0014339
:1036C00000E08143116070471D4A5832002911689B
:1036D00001D0014300E0814311607047184A603215
:1036E0000029116801D0014300E081431160704757
:1036F000134A64320029116801D0014300E081437C
:10370000116070470E4A0D320029117801D0014333
:1037100000E081431170704709487430016841F03E
:103720008071016070470146054A00200C32126822
:103730000A4200D00120704701490E3108707047DD
:1037400000380240FFFFF6FE103000240000474220
:10375000800E47420000FFFF0024F40024010020F7
:10376000FFFCFF0F10B501210C022046FFF78EFF72
:103770002046BDE810400021FFF788BF30B5426801
:10378000C84B0C791A400B6842EA04221343436089
:103790008268C54B4D791A40D1E9034323438C68B5
:1037A00044EA4504234313438360C26A097D22F43B
:1037B0007002491EC9B242EA0151C16230BD002106
:1037C0000160017141718160C16001610121017578
:1037D0007047B64B10B5D3F80423B5490A40D0E979
:1037E00000142143D0E90240044321431143C3F8AC
:1037F000041310BD0021016041608160C160704709
:103800000029816802D041F0010101E021F00101AD
:10381000816070474268A74B1A400A434260704774
:10382000416282627047426822F01F020A4342608E
:1038300070479E490028D1F8040302D040F40000EC
:1038400001E020F40000C1F8040370479749002804
:10385000D1F8040302D040F4800001E020F480009D
:10386000C1F80403704770B5072409290AD9C5684F
:10387000A1F10A0606EB4606B440A543B3401D433A
:10388000C56007E0056901EB4106B440A543B340BC
:103890001D4305611F23072A09D2446B521E02EB08
:1038A000820293409C4391400C43446370BD0D2AB7
:1038B00009D2046BD21F02EB820293409C439140D9
:1038C0000C43046370BDC46A0D3A02EB820293405C
:1038D0009C4391400C43C46270BD816841F08041BB
:1038E00081607047014600208968490200D50120A7
:1038F00070470029816802D041F4806101E021F421
:103900008061816070470029816802D041F0020126
:1039100001E021F00201816070474268491E22F4F3
:10392000604242EA4131416070470029416802D05B
:1039300041F4006101E021F4006141607047C06C16
:1039400080B270475948D0F8080370470029816851
:1039500002D041F4807101E021F4807181607047F0
:103960000029816802D041F4007101E021F4007166
:10397000816070474D490028D1F8040302D040F41B
:10398000005001E020F40050C1F80403704770B506
:10399000072409290AD9C568A1F10A0606EB4606DB
:1039A000B440A543B3401D43C56007E0056901EB82
:1039B0004106B440A543B3401D430561836BC3F387
:1039C0000154121B921C02EB82041F22A24093435B
:1039D000A1400B43836370BD826B491E22F44012E9
:1039E00042EA01518163704708B5084400900260C3
:1039F00008BD826822F470220A43826070478268A0
:103A000022F440120A4382607047816841F48001C9
:103A100081607047014600208968490200D5012075
:103A200070470029416802D041F4806101E021F42F
:103A30008061416070470029416802D041F48051A3
:103A400001E021F480514160704708B508442830F6
:103A50000090006880B208BD01238B4041680AB124
:103A6000194300E099434160704702460020126804
:103A70000A4200D001207047C9430160704730B549
:103A80000246002053680C0A01258D4011682B4026
:103A9000214202D0002B00D0012030BD6FEA11215D
:103AA00001607047FFFEFFFCFDF7FFC000200140F2
:103AB000E030FCFFFFFD3FFF2DE9F043016821F0FE
:103AC000010101600021016041608160C16001610C
:103AD00021214161B849B84A3D251039904202D1AF
:103AE0008D60BDE8F083B44A4FF47466183290429A
:103AF00001D18E60F5E7B04A4FF47417303290422E
:103B000001D18F60EDE7AC4A4FF0746C48329042BF
:103B100002D1C1F808C0E4E7A74BA84A6033984235
:103B200001D1CA60DDE7A44CA54B7834A04201D195
:103B3000CB60D6E7DFF88082A24C08F190084045C0
:103B400001D1CC60CDE7DFF870824FF03D5908F12C
:103B5000A808404502D1C1F80C90C2E79A49DFF8A5
:103B600068820839404501D10D60BAE7964D183595
:103B7000A84201D10E60B4E7934D3035A84201D17F
:103B80000F60AEE7904D4835A84202D1C1F800C0A1
:103B9000A7E78D4D8C496035091FA84201D10A6005
:103BA0009FE7894A7832904201D10B6099E7864AB3
:103BB0009032904201D10C6093E7834AA832904240
:103BC0008FD1C1F800908CE730B503687F4ACC688C
:103BD00013400A682243D1E905452C432243CC69AE
:103BE00022430C6A22434C6A22438C6A22434C6B68
:103BF00022438C6B22431A430260426922F007037E
:103C0000D1E90B2422431A4342610A6942604A689F
:103C100082608968C16030BD0021016041608160BF
:103C2000C160016141618161C16101624162816282
:103C3000C16201634163816370470029016802D05A
:103C400041F0010101E021F001010160704700290C
:103C5000016802D041F4004101E021F4004101601B
:103C600070470029016802D041F0200101E021F0F5
:103C700020010160704741607047406880B2704722
:103C8000002A026802D042F4002201E022F400225D
:103C90000260016170470029016802D041F480216F
:103CA00001E021F48021016070470AB10161704791
:103CB000C1607047014600200968090300D5012052
:103CC0007047014600200968C90700D001207047ED
:103CD000406900F03800704702463B4B00209A4292
:103CE00002D2354A103A01E0374A103A8B0001D52A
:103CF000526800E01268364B1A400A4200D0012098
:103D00007047314A904202D22B48103801E02E48C9
:103D100010382F4A8B0001EA020101D5C1607047BB
:103D2000816070470B0607D5436912B143F08003E9
:103D300001E023F080034361802908D0002A026853
:103D400001F01E0101D00A4300E08A43026070477F
:103D500030B51D4A0024904202D2174B103B01E0BF
:103D6000194B103B1B4A114205D01E2202EAD125F5
:103D700002682A4002E0406900F08002880001D514
:103D8000586800E01868124B1840084201D002B190
:103D90000124204630BD0C4A904202D20648103819
:103DA00001E0094810380A4A8B0001EA020101D5F6
:103DB000C160704781607047106002403D00002084
:103DC000400F002000003D20106402403F801CF0A6
:103DD0007D0F7D0F3C0F3C0F374900200860091D07
:103DE0000860091D0860091D086033493348143113
:103DF0000860704730B530498379026853B30B6867
:103E000093430B600A1D13680468A343136002798F
:103E10000A441368046823431360274A083213686E
:103E20000468A3431360131D1C680568AC431C6041
:103E30004479102C05D021440A68006802430A60C6
:103E400030BD11680468214311601968006801439E
:103E5000196030BD0079084401689143016030BDAC
:103E60000021016001710C22427181717047124979
:103E700010310A6802430A60704701460E4A00206A
:103E8000143212680A4200D0012070470A491431E6
:103E900008607047084A014600201268064B0A4035
:103EA00014331B680B4202D0002A00D00120704757
:103EB0000149143108607047003C0140FFFF7F005A
:103EC000FE4910B5884206D101210846FFF7DEFB06
:103ED000002101205BE0B0F1804F09D0F849884211
:103EE0000DD101210220FFF7C7FB0021022070E065
:103EF00001210846FFF7C0FB0021012069E0F149DC
:103F0000884206D101210420FFF7B6FB00210420DE
:103F10005FE0ED49884206D101210820FFF7ACFBA4
:103F20000021082055E0E949884206D101211020EE
:103F3000FFF7A2FB002110204BE0E549884206D1A3
:103F400001212020FFF798FB0021202041E0E149DA
:103F5000884206D101210220FFF798FB00210220B0
:103F600015E0DD49884202D101210C040AE0DB4959
:103F7000884202D101214C0404E0D94988420AD187
:103F800001218C042046FFF781FB00212046BDE87B
:103F90001040FFF77BBBD349884206D10121402066
:103FA000FFF76AFB0021402013E0CF49884206D189
:103FB00001218020FFF760FB0021802009E0CB4930
:103FC00088420AD1841501212046FFF755FB0021C4
:103FD0002046BDE81040FFF74FBB10BD30B502884A
:103FE000B64BBC4C98420DD0A0420BD0B0F1804FE4
:103FF00008D0B34DA84205D0B24DA84202D0B24D70
:10400000A84203D122F070054A882A43AF4DA84246
:1040100006D0AF4DA84203D022F440750A892A4346
:1040200002804A68C2620A880285984201D0A04292
:1040300001D1897A01860121818230BD4FF0FF31A3
:1040400041600021018001814180817270470185BA
:1040500082827047028822F070020A430280704711
:1040600041627047C1627047406A7047008D704777
:104070000029018802D041F0020101E021F0020193
:10408000018070470029018802D041F0040101E05D
:1040900021F00401018070470029018802D041F01D
:1040A000800101E021F0800101807047028822F048
:1040B0000802028002880A4302807047028822F4C4
:1040C0004072028002880A430280704700290188FA
:1040D00002D041F0010101E021F0010101807047AF
:1040E00030B5028C22F001020284028C8388048B9A
:1040F00022F0020224F073050C882C438D891543AD
:104100004A882A436D4DA84202D0724DA8420DD173
:1041100022F00805CA8923F440732A4322F00405DB
:104120008A882A430D8A1D434B8A2B43838004834C
:1041300089684163028430BD70B5028C22F01002A0
:104140000284028C8488038B0D8823F4E6464FF6A4
:10415000FF7303EA052535438E8922F0200203EA26
:10416000061616434A8803EA02123243534EB042FF
:1041700002D0584EB04215D122F08006CA8924F4EC
:10418000406403EA0212324322F040068A8803EABE
:10419000021232430E8A03EA860626434C8A03EA59
:1041A000840434438480058389688163028470BDFC
:1041B00070B5028C22F480720284028C8488838B16
:1041C0000D8823F073031D4322F400738E894FF68C
:1041D000FF7202EA06261E434B8802EA032333439A
:1041E000364EB04202D03B4EB04215D123F40066A9
:1041F000CB8924F4405402EA0323334323F480663A
:104200008B8802EA032333430E8A02EA061626430A
:104210004C8A02EA04143443848085838968C1632C
:10422000038470BD70B5028C22F480520284048C29
:104230008288838B0D8823F4E6464FF6FF7303EAEA
:104240000525354324F400568C8903EA04343443AD
:104250004E8803EA06362643184CA04202D01D4C75
:10426000A04205D122F480440A8A03EA8212224342
:104270008280858389680164068470BD0021018085
:104280004180818081608181C1810182418270474A
:1042900030B50124058C00F118038C40A54305843A
:1042A00031B308292CD0091FC1F34E00184401680E
:1042B00048F6FF731940016001681AE000000140F0
:1042C0000004004000080040000C004000100040C6
:1042D000001400400004014000400140004401403F
:1042E0000048014000180040001C00400020004031
:1042F00006E04FF6FF7303EA02221143016030BD6E
:1043000003EB510001684FF68F731940016001689B
:10431000F3E74163704781637047C163704701648D
:104320007047028B22F070020A4302837047028BAF
:104330004FF6FF7322F4E04203EA012111430183A7
:104340007047828B22F070020A4382837047828B0F
:104350004FF6FF7322F4E04203EA01211143818307
:104360007047028B22F008020A4302837047028BD7
:104370004FF6FF7322F4006203EA01211143018327
:104380007047828B22F008020A4382837047828B37
:104390004FF6FF7322F4006203EA01211143818387
:1043A0007047028B22F004020A4302837047028B9B
:1043B0004FF6FF7322F4806203EA01211143018367
:1043C0007047828B22F004020A4382837047828BFB
:1043D0004FF6FF7322F4806203EA012111438183C7
:1043E0007047028B22F080020A4302837047028BDF
:1043F0004FF6FF73C2F30E0203EA0121114301835A
:104400007047828B22F080020A4382837047828B3E
:104410004FF6FF73C2F30E0203EA012111438183B9
:104420007047028C22F002020A4302847047028C19
:1044300022F008020A4302847047028C4FF6FF7391
:1044400022F0200203EA0111114301847047028C1B
:104450004FF6FF7322F0800203EA01111143018439
:104460007047028C4FF6FF7322F4007203EA0121B9
:10447000114301847047028C4FF6FF7322F40062EF
:1044800003EA0121114301847047028C4FF6FF7348
:1044900022F4005203EA013111430184704710B540
:1044A0000123048C8B409C430484038C8A40134377
:1044B000038410BD10B50423048C8B409C430484FA
:1044C000038C8A401343038410BD828B22F4406224
:1044D0008283828B4FF6FF7303EA01210A438283B2
:1044E0007047828B22F00C028283828B0A43828384
:1044F0007047028B22F440620283028B4FF6FF73F7
:1045000003EA01210A4302837047F0B5048C24F0CA
:1045100010040484078B068C4FF6FF7404EA01151F
:1045200027F4734704EA0331394304EA02220A43B9
:1045300026F0A001294341F0100102830184F0BD5F
:10454000028B22F00C020283028B0A430283704723
:104550002DE9F0410D460E884988AA882B8904462A
:104560000EB3042E26D0082E268C4FF6FF7028D0CE
:1045700026F480562684A78B268C00EA022200EAC5
:10458000013127F473473A4300EA0330104326F41D
:1045900020420A4342F48051A0832184E9882046C6
:1045A000BDE8F04191E700F062F9E9882046BDE8F6
:1045B000F041C5E7FFF7A9FFE9882046BDE8F041D3
:1045C00097E726F480762684A78B268C00EA0121C3
:1045D00000EA0310104327F0F307384326F4206263
:1045E0000A4342F48071A0832184E9882046BDE813
:1045F000F04176E700210180418001228280C18064
:10460000018170472DE9F0410C4600264988074694
:10461000012501B90226A288012A00D1022520889D
:1046200023890028384610D0FFF76FFFE18838460D
:10463000FFF75FFF23892A463146384600F017F915
:10464000E1883846BDE8F0417AE700F010F9E188EA
:104650003846FFF775FF23892A4631463846FFF76B
:1046600054FFE1883846BDE8F04142E7406B7047AF
:10467000806B7047C06B7047006C704710B50A883C
:104680004B88CC881A438B8823431A430B891A43DF
:104690004B8989891A430A43A0F8442010BD0021A0
:1046A000018041808180C180018141818181704789
:1046B000002930F8441F02D041F4004101E0C1F369
:1046C0000E01018070470029818802D041F0040169
:1046D00001E021F00401818070470029818802D027
:1046E00041F0010101E021F0010181807047002AC1
:1046F000828901D00A4300E08A4382817047818227
:10470000704702460020128A0A4200D001207047FA
:10471000C9430182704702460020138A92890B42E6
:1047200002EA010202D0002A00D001207047C943EA
:10473000018270471143A0F848107047002A82890F
:1047400001D00A4300E08A438281704700298188B2
:1047500002D041F0080101E021F00801818070479A
:10476000018921F0070101817047028922F070025E
:104770000A430281704700B50346FFF7F6FF188928
:1047800040F00700188100BD70B516460D4660293F
:1047900004464FF0010231460AD000F068F829467D
:1047A0002046FFF7E2FF208940F00700208170BD1E
:1047B000FFF7ABFEF3E730B504894FF6FF7505EA66
:1047C00003231343E4B20B432343038130BD10B5ED
:1047D0000446FFF7F0FF208940F07700208110BDEC
:1047E00010B50446FFF7E7FF208940F480402081A0
:1047F00010BD828822F07002828082880A43828003
:104800007047028922F00702028102890A4302816D
:104810007047028922F08002028102890A430281E4
:10482000704770B50589048B068C25F007050D438C
:104830004FF6FC410C4040F201110C434FF6FF7162
:1048400001EA031126F02206114331430581048356
:10485000018470BD0029818802D041F0800101E00F
:1048600021F0800181807047A0F85010704770B52A
:10487000048C24F001040484058B048C4FF6FF762D
:1048800006EA0313134325F0F3052B4324F00A0231
:104890000A4342F001010383018470BDC74910B58A
:1048A000884206D101211020FEF7F0FE00211020E1
:1048B00028E0C349884202D101214C0410E0C149DB
:1048C000884202D101218C040AE0BF49884202D10A
:1048D0000121CC0404E0BD4988420AD101210C0524
:1048E0002046FEF7C9FE2046BDE810400021FEF735
:1048F000C3BEB749884209D101212020FEF7C6FE78
:1049000000212020BDE81040FEF7C0BE10BD7FB5DD
:104910000446008A0D4620F44051E888084320826E
:10492000A08941F20C618843A9882A8911436A89C8
:1049300002431143A181A08A20F44071A889084351
:10494000A0826846FEF7E4FD9C48844202D0A0485D
:10495000844201D1039800E00298A189090400EB88
:10496000C00101EB0010296801D5490000E0890071
:10497000B0FBF1F26420B2FBF0F109010B096FF01A
:1049800018056B4302EB8302A3891D044FF0320329
:1049900006D503EBC202B2FBF0F000F0070005E021
:1049A00003EB0212B2FBF0F000F00F00084320818D
:1049B0007FBD4FF41651016000218180C1800181CB
:1049C0000C2242818181704710B5028A4C8822F402
:1049D00070630A8822438C88C9880C4322431A4397
:1049E000028210BD0021018041808180C18070471A
:1049F0000029818902D041F4005101E021F40051E5
:104A000081817047028B02F47F420283028B0A434A
:104A1000028370470029818902D041F4004101E0FE
:104A2000C1F30E01818170470029818A02D041F4CF
:104A3000006101E021F4006181827047C1F3080147
:104A4000818070478088C0F308007047028A22F096
:104A50000F020282028A0A4302827047002981897A
:104A600002D041F0020101E021F002018181704792
:104A7000828922F40062828182890A43828170479E
:104A8000028A22F020020282028A0A4302827047CE
:104A90000029018A02D041F4804101E021F48041E3
:104AA00001827047818941F00101818170470029AD
:104AB000818A02D041F0080101E021F008018182E1
:104AC0007047028BD2B20283028B42EA012101833A
:104AD00070470029818A02D041F0200101E021F0D5
:104AE0002001818270470029818A02D041F01001A3
:104AF00001E021F0100181827047828A22F00402D5
:104B00008282828A0A43828270470029818A02D087
:104B100041F0020101E021F0020181827047002A88
:104B2000828A01D00A4300E08A438282704710B52E
:104B3000C1F3421301F01F040121A140012B07D052
:104B4000022B07D01430002A026805D00A4304E083
:104B50000C30F8E71030F6E78A43026010BD0246D9
:104B6000002012880A4200D001207047C94301800A
:104B7000704730B501F01F0201240025C1F3421334
:104B800004FA02F2012B0FD0022B0FD0838A4FEAD6
:104B900011210088134204FA01F400EA040001D054
:104BA00000B10125284630BD8389F0E7038AEEE78E
:104BB0000A0A01219140C943018070470010014059
:104BC0000044004000480040004C004000500040BD
:104BD0000014014010B501218C032046FEF756FD5C
:104BE0002046BDE810400021FEF750BD1349086083
:104BF000704710B58A0721F003041149130F2144AF
:104C00000F22D1F808489A409443C1F80848D1F8D7
:104C1000082898400243C1F8082810BD0949C1F886
:104C2000DC007047084908607047044900202031C3
:104C30000968C90500D5012070470000003801400F
:104C400000300140000027420004274200F1080123
:104C50004FF0FF32C0E90112C16001610021016023
:104C60007047002101617047426853684B60436898
:104C70008B60536899605160416008610168491C0C
:104C80000160704710B50B685A1C02D000F1080291
:104C900002E0026904E05268546824689C42FAD930
:104CA00053684B6099608A60516008610168491CD3
:104CB000016010BDD0E901128A60D0E90112516093
:104CC00001694A68824201D182684A600022026119
:104CD0000868401E086008687047000070B50D46FF
:104CE00004001FD000F0EBFCD4E90F21206802FB88
:104CF000010363600023A363521EA06002FB010056
:104D0000E060581E6064A06404F110006DB1FFF70C
:104D10009DFF04F12400FFF799FF00BF00F0D7FCCE
:104D2000012070BDFBF786FAFEE721690029F5D066
:104D300001F07BF90128F1D100F0BBFCEEE72DE991
:104D4000F04117460E46050019D0502000F0DEFC59
:104D5000040014D005FB06F0401C00F0D7FC2060D6
:104D600050B1C4E90F5601212046FFF7B7FF84F880
:104D70004D702046BDE8F081204600F01CFDFBF799
:104D800059FAFEE770B5044600F099FC04F12405D9
:104D90000AE0606A58B1284601F047F908B101F00D
:104DA000BFF9A06C401EA064A06C0028F1DC4FF09D
:104DB000FF36A66400F08BFC00F081FC04F11005C6
:104DC0000AE0206958B1284601F02FF908B101F036
:104DD000A7F9606C401E6064606C0028F1DC6664BA
:104DE000BDE8704000F073BC10B51346026C044679
:104DF0008AB1CBB1E06801F027FAE168206C091AAA
:104E0000E1602268914202D26168081AE060A06BFA
:104E1000401CA06310BD20680028F8D1606801F034
:104E2000C7F900206060F2E7A06801F00DFA216C7C
:104E3000A0680844A06061688842E8D32068A06048
:104E4000E5E72DE9FF4182B098460F4604004FF098
:104E5000000502D000261FB107E0FBF7EBF9FEE7E3
:104E6000206C10B1FBF7E6F9FEE700F028FCA16B1F
:104E7000E06B814213D2424639462046FFF7B4FF29
:104E8000606A38B104F1240001F0CFF8012801D1A3
:104E900000F00FFC00F01BFC012006B06AE704984C
:104EA00008B11DB106E000F012FC1DE0684601F0FB
:104EB000E9F8012500F00BFC00F046FE00F0FFFBD6
:104EC000606C401C00D16664A06C401C00D1A664DC
:104ED00000F0FDFB04A9684601F0DFF830B1204680
:104EE000FFF750FF00F0C2FD0020D6E700F0E7FB1F
:104EF000A06BE16B884210D100F0E9FB04F11000D7
:104F0000049901F061F82046FFF73CFF00F0AEFD88
:104F10000028AAD100F0CDFBA7E700F0D8FB20467F
:104F2000FFF730FF00F0A2FD9FE770B50546502067
:104F300000F0ECFB04001DD0002161602160A16045
:104F4000E160A1630120C4E90F01801E6064A064D8
:104F500084F84D5004F11000FFF778FE04F12400AE
:104F6000FFF774FE00231A4619462046FFF769FF33
:104F7000204670BDFBF75EF9FEE710B5040009D0CE
:104F800001F0DAF8616888420FD1E068401EE06005
:104F900003D008E0FBF74EF9FEE700231A46194656
:104FA0002046FFF74EFF012010BD002010BD30B499
:104FB00003680D46002B0CD0026CC1688C18C460CD
:104FC00041688C4200D3C360C168284630BC01F000
:104FD0003BB930BC70472DE9FF4383B01F4688467C
:104FE00004004FF0000506D0002604F12409B8F1B2
:104FF000000F03D007E0FBF71DF9FEE7206C10B1AE
:10500000FBF718F9FEE700F05AFBA06B30B34146FE
:105010002046E568FFF7CBFF77B1E560606A28B10D
:10502000484601F002F808B100F043FB00F04FFBE6
:10503000012007B0BDE8F083A06B401EA06320688C
:1050400010B901F079F8606020690028EED004F111
:10505000100000F0EAFF0128E6D0E7E7059808B164
:105060001DB106E000F033FB1DE0684601F00AF8D0
:10507000012500F02CFB00F067FD00F020FB606CC8
:10508000401C00D16664A06C401C00D1A66400F0F6
:105090001EFB05A9684601F000F830B12046FFF775
:1050A00071FE00F0E3FC0020C3E700F008FBA06BFA
:1050B00038B100F00CFB2046FFF764FE00F0D6FC90
:1050C000A1E700F004FB206830B900F0F8FA60684E
:1050D00001F040F800F0FBFA4846059900F074FF33
:1050E0002046FFF74FFE00F0C1FC00288BD100F0F6
:1050F000E0FA88E770B50D46040009D001F01CF80D
:105100006168884207D1E068401CE060012070BD02
:10511000FBF790F8FEE700232A4619462046FFF7E2
:105120005AFF0128F3D1E168491CE16070BD10B558
:105130000C4602220021FFF702FE08B1846310BD75
:10514000FBF778F8FEE72DE9F041984615460F4643
:10515000040001D01FB107E0FBF76CF8FEE7206CFC
:1051600010B1FBF767F8FEE7FBF764F80646A06BA3
:10517000E16B88421AD2424639462046FFF734FE98
:10518000A06C401C04D0A06C401CA06401240EE064
:10519000606A0028FAD004F1240000F046FF0028DD
:1051A000F4D0002DF2D001202860EFE70024304633
:1051B000FBF747F82046DDE52DE9F04115460F469F
:1051C000040001D01FB107E0FBF734F8FEE7206CC4
:1051D00010B1FBF72FF8FEE7FBF72CF80646A06BA3
:1051E000E0B139462046FFF7E2FEA06B401EA06307
:1051F000606C401C04D0606C401C606401240EE0B4
:1052000020690028FAD004F1100000F00EFF0028F9
:10521000F4D0002DF2D001202860EFE700243046C2
:10522000FBF70FF82046A5E510B5040006D000F006
:1052300046FAA46B00F04BFA204610BDFAF7FAFFCD
:10524000FEE710B508B1806B10BDFAF7F3FFFEE77B
:1052500010B504000BD03348002100BF00EBC102A1
:105260005368A34206D1002240F8312005E0FAF746
:10527000E1FFFEE7491C0829F0D3206800F09BFA03
:105280002046BDE8104000F096BA90F84C007047F8
:1052900080F84C10704790F84D00704710B518B169
:1052A000806B20B1002010BDFAF7C4FFFEE701209B
:1052B00010BD10B528B1816BC06B814204D10120B3
:1052C00010BDFAF7B7FFFEE7002010BD10B5154B73
:1052D000002200BF53F832401CB1521C082AF9D3F7
:1052E00010BD43F8321003EBC201486010BD70B529
:1052F0000D46044600F0E3F9626C0020521C00D118
:105300006064A16C491C00D1A06400F0E0F9A06BBE
:1053100020B9294604F1240000F073FE2046BDE8C0
:1053200070402FE59802002070B500244160BF4D09
:105330000061914206D8D11A8269914206D2011DBC
:10534000E86807E09A4203D2994201D3012403E0BE
:10535000011DA868FFF796FC204670BDFEB5B34C52
:105360001D46034627680020089E002F08D08DE8C0
:105370000E0035B100232A4669463846FFF7E3FEA2
:10538000FEBD00F0DCFE01284FF0000305D0002236
:1053900069462068FFF755FDFEBD3246F8E770B557
:1053A000054600F080FDA14E04467068844203D299
:1053B00000F078F8012000E00020286020467460AA
:1053C00070BD9A4CA068016839B1C06800210068BE
:1053D00000F0E7F800F095F8F4E701210020F7E786
:1053E00010B500F06CF9914C206880B99048FFF737
:1053F0002DFC8F481430FFF729FC8D48A060143035
:10540000E06000220C210A20FFF799FC2060BDE833
:10541000104000F05CB91FB5FFF7E2FF8348006859
:1054200068B100200221CDE90010029003460A0273
:10543000039080A1814800F0E3F9002802D1FAF737
:10544000F9FEFEE704B010BD2DE9F0471E46DDF879
:10545000209017460D00804612D0282000F056F903
:1054600004000AD0FFF7BCFFC4F80080C4E9065767
:10547000C4E90869201DFFF7F4FB2046BDE8F0876A
:10548000FAF7D8FEFEE710B5044600F018F9606997
:1054900008B1012400E0002400F019F9204610BDF5
:1054A000006A7047F8B5614D20E0C1680E68C068B9
:1054B000C468201DFFF7FEFB616A20468847E0694B
:1054C000012813D1A0693044B04206D9246160603C
:1054D000211DA868FFF7D6FB08E00020034601461F
:1054E000009032462046FFF739FF38B1A8680168BE
:1054F0000029DAD1E968C5E90210F8BDFAF79AFE89
:10550000FEE770B588B002A8FFF749FF0546474E91
:105510003DE0069C24B1606910B1201DFFF7CAFB75
:10552000049830B1012832D0022820D003282ED18F
:105530002AE00598A169034601442A462046FFF760
:10554000F3FE012823D1616A20468847E0690128DB
:105550001DD1002000900598A1690023421819462A
:105560002046FFF7FBFE90B9FAF764FEFEE70598C8
:10557000A06130B141192B461A462046FFF7D4FEF0
:1055800005E0FAF757FEFEE7204600F014F9002385
:105590001A4604A93068FFF71EFD0028B9D108B0EB
:1055A00070BD2DE9FC410F46054600F0CDFA01A87B
:1055B000FFF7F5FE0446019818B100F057FABDE870
:1055C000FC811A4E37BBA54224D800F04FFAB068D0
:1055D0002746C068C468201DFFF76CFBE0690128FE
:1055E00011D1A0692B4641193A462046FFF79CFE8F
:1055F000012808D100200346014600902A46204693
:10560000FFF7ACFE18B1616A20468847D7E7FAF782
:1056100011FEFEE7291B3068FFF769FE00F026FA4D
:105620000028CCD100F045F8C9E700003401002083
:10563000D8020020546D722053766300C3530008D3
:1056400010B5031F4FF080741C601B1F1960191FD9
:1056500000230B6014390A60091FDA1E44380A60FF
:1056600010BD264842F210710068B0FBF1F14FF016
:10567000E020491E4161072101617047204810B5B3
:10568000016841F47C010160016841F07C410160E6
:10569000FFF7E7FF1B4900200860FAF799FD1A4859
:1056A000016841F040410160FAF788FD002010BD1B
:1056B000704713494FF080501C390860704710B58F
:1056C000FAF7B8FD0F480168491C016010BD0D498B
:1056D0000868401E086001D1FAF7B3BD7047084959
:1056E00010B51C394FF080500860FAF7A3FD00F0A8
:1056F0006CF9BDE810400020FAF7A3BD10010020AE
:1057000020ED00E04401002034EF00E02DE9F041FD
:105710000446002500F018FA374A02F108015068E3
:1057200001F1080360B93548086000204FF42056A5
:105730004860C3E900063148C0E9003601205060E6
:1057400042F2FF7094B31034660704D004F00706E9
:10575000C6F108063444661E864227D226480968E8
:10576000083001E0084631464E68A64202D20E6873
:10577000002EF7D1994219D005680B68036048687C
:105780001035001B20280DD90B1958601A484C60A1
:1057900008305E6800E0204604686768B742FAD3C4
:1057A0001C60036048681168081A106000F05EF918
:1057B0002846BDE8F08110B5002817D0A0F11004EC
:1057C00000F0C2F90C486168083000E01046026839
:1057D00053688B42FAD3226004600748616802680C
:1057E00011440160BDE8104000F040B910BD02480E
:1057F0000068704770470000480100200003002047
:105800002DE9FF5FDDE90E68109F15468A465FEAC5
:10581000000B04D0052E05D3FAF70CFDFEE7FAF7CE
:1058200009FDFEE74C20FFF771FF04001CD0A80023
:1058300081469FB13846206398B1A522494600F0C1
:1058400015FD6FF00301206B01EB8501084420F08A
:10585000070568070BD0FAF7EDFCFEE7FFF756FFE8
:10586000E9E72046FFF7A7FF4FF0FF347BE0514602
:105870000A2204F1340000F017FD002084F83D00F6
:10588000E662201DA664FFF7ECF904F11800FFF7AB
:10589000E8F92461C6F105006462A0615946284612
:1058A000039AFFF7CDFE2060B8F1000F01D0C8F8D1
:1058B0000040FFF704FFF94DA868401CA860286865
:1058C000DFF8DC8310B1A86948B32DE02C60A8682C
:1058D000012829D15FF0000707EB870108EB810061
:1058E000FFF7B4F97F1C052FF6D3ED486430FFF7BE
:1058F000ADF9EB487830FFF7A9F9E9488C30FFF7AC
:10590000A5F9E748A030FFF7A1F9E548B430FFF763
:105910009DF9E348643068631430A86304E02868A4
:10592000C06AB04200D82C60E06A2969884200D978
:105930002861E96A2164491CE9626969884200D9E1
:10594000686100EB800108EB8100211DFFF78CF9F5
:105950000124FFF7BCFEA86928B12868C06AB042DC
:1059600001D2FFF7A6FE04B02046BDE8F09F70B557
:105970000646FFF7A4FEC94C2068864201D10026E6
:1059800020E0FEB13546281DFFF794F9A86A18B14A
:1059900005F11800FFF78EF9C148291DA030FFF767
:1059A00063F96068401C6060E06A401CE062FFF7D9
:1059B0008EFEA069002807D0002E05D1BDE87040FA
:1059C000FFF777BE2568DEE770BD2DE9F041B34CE7
:1059D000E06920B1206A401C2062BDE8F081E068E7
:1059E000401CE060E0684FF0FF36A0B9606B0068D3
:1059F00010B1FAF71FFCFEE7606BA16B6163A06357
:105A0000A06A401CA062606B0068A8B1606BC068AF
:105A1000C06840682063E068216B8842DDD3A04FF6
:105A2000606B006850B1606BC068C568E168686809
:105A3000814205D22063D0E72663ECE72663CCE7FA
:105A4000281DFFF737F9A86A18B105F11800FFF70C
:105A500031F9E86A6169884200D9606100EB800031
:105A600007EB8000291DFFF7FFF8D9E72DE9F04784
:105A70008A4C0026E06938B1FFF721FEE069401E3C
:105A8000E061E06918B142E0FAF7D4FBFEE7A068F4
:105A900098B3DFF80C82002708F18C08DFF8009239
:105AA0001AE0C068C56805F11800FFF703F9281D62
:105AB000FFF700F9E86A6169884200D9606100EB8C
:105AC000800109EB8100291DFFF7CEF8E86A216803
:105AD000C96A884200D30127D8F80010404600293F
